{
    "_format": "hh-sol-artifact-1",
    "contractName": "DonateKit",
    "sourceName": "contracts/DonateKit.sol",
    "abi": [
        {
            "inputs": [],
            "stateMutability": "payable",
            "type": "constructor"
        },
        {
            "anonymous": false,
            "inputs": [
                {
                    "indexed": true,
                    "internalType": "address",
                    "name": "from",
                    "type": "address"
                },
                {
                    "indexed": false,
                    "internalType": "uint256",
                    "name": "timestamp",
                    "type": "uint256"
                },
                {
                    "indexed": false,
                    "internalType": "string",
                    "name": "message",
                    "type": "string"
                },
                {
                    "indexed": false,
                    "internalType": "string",
                    "name": "name",
                    "type": "string"
                }
            ],
            "name": "NewKitDonation",
            "type": "event"
        },
        {
            "inputs": [
                {
                    "internalType": "string",
                    "name": "_message",
                    "type": "string"
                },
                {
                    "internalType": "string",
                    "name": "_name",
                    "type": "string"
                },
                {
                    "internalType": "uint256",
                    "name": "_donateAmount",
                    "type": "uint256"
                }
            ],
            "name": "donateSchoolKit",
            "outputs": [],
            "stateMutability": "payable",
            "type": "function"
        },
        {
            "inputs": [],
            "name": "getAllSchoolKits",
            "outputs": [
                {
                    "components": [
                        {
                            "internalType": "address",
                            "name": "giver",
                            "type": "address"
                        },
                        {
                            "internalType": "string",
                            "name": "message",
                            "type": "string"
                        },
                        {
                            "internalType": "string",
                            "name": "name",
                            "type": "string"
                        },
                        {
                            "internalType": "uint256",
                            "name": "timestamp",
                            "type": "uint256"
                        }
                    ],
                    "internalType": "struct DonateKit.SchoolKit[]",
                    "name": "",
                    "type": "tuple[]"
                }
            ],
            "stateMutability": "view",
            "type": "function"
        },
        {
            "inputs": [],
            "name": "getTotalSchoolKits",
            "outputs": [
                {
                    "internalType": "uint256",
                    "name": "",
                    "type": "uint256"
                }
            ],
            "stateMutability": "view",
            "type": "function"
        },
        {
            "inputs": [],
            "name": "owner",
            "outputs": [
                {
                    "internalType": "address payable",
                    "name": "",
                    "type": "address"
                }
            ],
            "stateMutability": "view",
            "type": "function"
        }
    ],
    "bytecode": "0x60806040526200004f6040518060400160405280601281526020017f596f2120536d61727420436f6e747261637400000000000000000000000000008152506200009660201b620005d41760201c565b33600160006101000a81548173ffffffffffffffffffffffffffffffffffffffff021916908373ffffffffffffffffffffffffffffffffffffffff1602179055506200022a565b6200013681604051602401620000ad9190620001a3565b6040516020818303038152906040527f41304fac000000000000000000000000000000000000000000000000000000007bffffffffffffffffffffffffffffffffffffffffffffffffffffffff19166020820180517bffffffffffffffffffffffffffffffffffffffffffffffffffffffff83818316178352505050506200013960201b60201c565b50565b60008151905060006a636f6e736f6c652e6c6f679050602083016000808483855afa5050505050565b60006200016f82620001c7565b6200017b8185620001d2565b93506200018d818560208601620001e3565b620001988162000219565b840191505092915050565b60006020820190508181036000830152620001bf818462000162565b905092915050565b600081519050919050565b600082825260208201905092915050565b60005b8381101562000203578082015181840152602081019050620001e6565b8381111562000213576000848401525b50505050565b6000601f19601f8301169050919050565b611070806200023a6000396000f3fe60806040526004361061003e5760003560e01c80620ff4341461004357806328d79fa91461006e5780638da5cb5b1461008a578063ba8035da146100b5575b600080fd5b34801561004f57600080fd5b506100586100e0565b6040516100659190610c9a565b60405180910390f35b610088600480360381019061008391906108ee565b61010e565b005b34801561009657600080fd5b5061009f6103cb565b6040516100ac9190610b9b565b60405180910390f35b3480156100c157600080fd5b506100ca6103f1565b6040516100d79190610bb6565b60405180910390f35b60006101066040518060600160405280602681526020016110156026913960005461066d565b600054905090565b6000662386f26fc1000090508082111561015d576040517f08c379a000000000000000000000000000000000000000000000000000000000815260040161015490610c5a565b60405180910390fd5b600160008082825461016f9190610dc1565b925050819055506101b56040518060400160405280601a81526020017f257320686173206a75737420646f6e617465642061206b69742100000000000081525033610709565b600260405180608001604052803373ffffffffffffffffffffffffffffffffffffffff16815260200186815260200185815260200142815250908060018154018082558091505060019003906000526020600020906004020160009091909190915060008201518160000160006101000a81548173ffffffffffffffffffffffffffffffffffffffff021916908373ffffffffffffffffffffffffffffffffffffffff160217905550602082015181600101908051906020019061027a9291906107ce565b5060408201518160020190805190602001906102979291906107ce565b506060820151816003015550506000600160009054906101000a900473ffffffffffffffffffffffffffffffffffffffff1673ffffffffffffffffffffffffffffffffffffffff16836040516102ec90610b86565b60006040518083038185875af1925050503d8060008114610329576040519150601f19603f3d011682016040523d82523d6000602084013e61032e565b606091505b5050905080610372576040517f08c379a000000000000000000000000000000000000000000000000000000000815260040161036990610c7a565b60405180910390fd5b3373ffffffffffffffffffffffffffffffffffffffff167f450408150b9dfdbd2774b3ac0e2125e67a94ff992b043c1698c46f2289455e5f4287876040516103bc93929190610cb5565b60405180910390a25050505050565b600160009054906101000a900473ffffffffffffffffffffffffffffffffffffffff1681565b60606002805480602002602001604051908101604052809291908181526020016000905b828210156105cb57838290600052602060002090600402016040518060800160405290816000820160009054906101000a900473ffffffffffffffffffffffffffffffffffffffff1673ffffffffffffffffffffffffffffffffffffffff1673ffffffffffffffffffffffffffffffffffffffff16815260200160018201805461049e90610ea7565b80601f01602080910402602001604051908101604052809291908181526020018280546104ca90610ea7565b80156105175780601f106104ec57610100808354040283529160200191610517565b820191906000526020600020905b8154815290600101906020018083116104fa57829003601f168201915b5050505050815260200160028201805461053090610ea7565b80601f016020809104026020016040519081016040528092919081815260200182805461055c90610ea7565b80156105a95780601f1061057e576101008083540402835291602001916105a9565b820191906000526020600020905b81548152906001019060200180831161058c57829003601f168201915b5050505050815260200160038201548152505081526020019060010190610415565b50505050905090565b61066a816040516024016105e89190610bd8565b6040516020818303038152906040527f41304fac000000000000000000000000000000000000000000000000000000007bffffffffffffffffffffffffffffffffffffffffffffffffffffffff19166020820180517bffffffffffffffffffffffffffffffffffffffffffffffffffffffff83818316178352505050506107a5565b50565b6107058282604051602401610683929190610c2a565b6040516020818303038152906040527f9710a9d0000000000000000000000000000000000000000000000000000000007bffffffffffffffffffffffffffffffffffffffffffffffffffffffff19166020820180517bffffffffffffffffffffffffffffffffffffffffffffffffffffffff83818316178352505050506107a5565b5050565b6107a1828260405160240161071f929190610bfa565b6040516020818303038152906040527f319af333000000000000000000000000000000000000000000000000000000007bffffffffffffffffffffffffffffffffffffffffffffffffffffffff19166020820180517bffffffffffffffffffffffffffffffffffffffffffffffffffffffff83818316178352505050506107a5565b5050565b60008151905060006a636f6e736f6c652e6c6f679050602083016000808483855afa5050505050565b8280546107da90610ea7565b90600052602060002090601f0160209004810192826107fc5760008555610843565b82601f1061081557805160ff1916838001178555610843565b82800160010185558215610843579182015b82811115610842578251825591602001919060010190610827565b5b5090506108509190610854565b5090565b5b8082111561086d576000816000905550600101610855565b5090565b600061088461087f84610d1f565b610cfa565b90508281526020810184848401111561089c57600080fd5b6108a7848285610e65565b509392505050565b600082601f8301126108c057600080fd5b81356108d0848260208601610871565b91505092915050565b6000813590506108e881610ffd565b92915050565b60008060006060848603121561090357600080fd5b600084013567ffffffffffffffff81111561091d57600080fd5b610929868287016108af565b935050602084013567ffffffffffffffff81111561094657600080fd5b610952868287016108af565b9250506040610963868287016108d9565b9150509250925092565b60006109798383610afe565b905092915050565b61098a81610e29565b82525050565b61099981610e17565b82525050565b6109a881610e17565b82525050565b60006109b982610d60565b6109c38185610d83565b9350836020820285016109d585610d50565b8060005b85811015610a1157848403895281516109f2858261096d565b94506109fd83610d76565b925060208a019950506001810190506109d9565b50829750879550505050505092915050565b6000610a2e82610d6b565b610a388185610d9f565b9350610a48818560208601610e74565b610a5181610f97565b840191505092915050565b6000610a6782610d6b565b610a718185610db0565b9350610a81818560208601610e74565b610a8a81610f97565b840191505092915050565b6000610aa2601b83610db0565b9150610aad82610fa8565b602082019050919050565b6000610ac5601483610db0565b9150610ad082610fd1565b602082019050919050565b6000610ae8600083610d94565b9150610af382610ffa565b600082019050919050565b6000608083016000830151610b166000860182610990565b5060208301518482036020860152610b2e8282610a23565b91505060408301518482036040860152610b488282610a23565b9150506060830151610b5d6060860182610b68565b508091505092915050565b610b7181610e5b565b82525050565b610b8081610e5b565b82525050565b6000610b9182610adb565b9150819050919050565b6000602082019050610bb06000830184610981565b92915050565b60006020820190508181036000830152610bd081846109ae565b905092915050565b60006020820190508181036000830152610bf28184610a5c565b905092915050565b60006040820190508181036000830152610c148185610a5c565b9050610c23602083018461099f565b9392505050565b60006040820190508181036000830152610c448185610a5c565b9050610c536020830184610b77565b9392505050565b60006020820190508181036000830152610c7381610a95565b9050919050565b60006020820190508181036000830152610c9381610ab8565b9050919050565b6000602082019050610caf6000830184610b77565b92915050565b6000606082019050610cca6000830186610b77565b8181036020830152610cdc8185610a5c565b90508181036040830152610cf08184610a5c565b9050949350505050565b6000610d04610d15565b9050610d108282610ed9565b919050565b6000604051905090565b600067ffffffffffffffff821115610d3a57610d39610f68565b5b610d4382610f97565b9050602081019050919050565b6000819050602082019050919050565b600081519050919050565b600081519050919050565b6000602082019050919050565b600082825260208201905092915050565b600081905092915050565b600082825260208201905092915050565b600082825260208201905092915050565b6000610dcc82610e5b565b9150610dd783610e5b565b9250827fffffffffffffffffffffffffffffffffffffffffffffffffffffffffffffffff03821115610e0c57610e0b610f0a565b5b828201905092915050565b6000610e2282610e3b565b9050919050565b6000610e3482610e3b565b9050919050565b600073ffffffffffffffffffffffffffffffffffffffff82169050919050565b6000819050919050565b82818337600083830152505050565b60005b83811015610e92578082015181840152602081019050610e77565b83811115610ea1576000848401525b50505050565b60006002820490506001821680610ebf57607f821691505b60208210811415610ed357610ed2610f39565b5b50919050565b610ee282610f97565b810181811067ffffffffffffffff82111715610f0157610f00610f68565b5b80604052505050565b7f4e487b7100000000000000000000000000000000000000000000000000000000600052601160045260246000fd5b7f4e487b7100000000000000000000000000000000000000000000000000000000600052602260045260246000fd5b7f4e487b7100000000000000000000000000000000000000000000000000000000600052604160045260246000fd5b6000601f19601f8301169050919050565b7f496e73756666696369656e742045746865722070726f76696465640000000000600082015250565b7f4661696c656420746f2073656e64206d6f6e6579000000000000000000000000600082015250565b50565b61100681610e5b565b811461101157600080fd5b5056fe5765206861766520256420746f74616c207363686f6f6c206b69747320726563696576656420a2646970667358221220923f22bcac6fca988160d3b97b92c2d7d68229e21df273bcd7c8624b0a072dee64736f6c63430008040033",
    "linkReferences": {},
    "deployedLinkReferences": {}
}